{
  "contractName": "Escrow",
  "abi": [
    {
      "constant": false,
      "inputs": [],
      "name": "registerDoctor",
      "outputs": [],
      "payable": false,
      "stateMutability": "nonpayable",
      "type": "function"
    },
    {
      "constant": false,
      "inputs": [
        {
          "name": "villager",
          "type": "address"
        }
      ],
      "name": "confirmTreatment",
      "outputs": [],
      "payable": false,
      "stateMutability": "nonpayable",
      "type": "function"
    },
    {
      "constant": false,
      "inputs": [
        {
          "name": "_addr",
          "type": "address"
        }
      ],
      "name": "withdrawFunds",
      "outputs": [],
      "payable": false,
      "stateMutability": "nonpayable",
      "type": "function"
    },
    {
      "constant": false,
      "inputs": [],
      "name": "retrieveDoctor",
      "outputs": [
        {
          "name": "",
          "type": "address"
        }
      ],
      "payable": false,
      "stateMutability": "nonpayable",
      "type": "function"
    },
    {
      "constant": true,
      "inputs": [],
      "name": "checkTotalFundsRaised",
      "outputs": [
        {
          "name": "",
          "type": "uint256"
        }
      ],
      "payable": false,
      "stateMutability": "view",
      "type": "function"
    },
    {
      "constant": false,
      "inputs": [],
      "name": "depositFunds",
      "outputs": [],
      "payable": true,
      "stateMutability": "payable",
      "type": "function"
    },
    {
      "inputs": [
        {
          "name": "_totalRaised",
          "type": "uint256"
        }
      ],
      "payable": false,
      "stateMutability": "nonpayable",
      "type": "constructor"
    }
  ],
  "bytecode": "0x6060604052341561000f57600080fd5b6040516020806103ab833981016040528080519060200190919050508060038190555050610369806100426000396000f300606060405260043610610078576000357c0100000000000000000000000000000000000000000000000000000000900463ffffffff1680631a1984de1461007d57806349a8a3c11461009257806368742da6146100cb578063b507eef214610104578063ba4b00b514610159578063e2c41dbc14610182575b600080fd5b341561008857600080fd5b61009061018c565b005b341561009d57600080fd5b6100c9600480803573ffffffffffffffffffffffffffffffffffffffff169060200190919050506101cf565b005b34156100d657600080fd5b610102600480803573ffffffffffffffffffffffffffffffffffffffff1690602001909190505061022a565b005b341561010f57600080fd5b6101176102f7565b604051808273ffffffffffffffffffffffffffffffffffffffff1673ffffffffffffffffffffffffffffffffffffffff16815260200191505060405180910390f35b341561016457600080fd5b61016c610321565b6040518082815260200191505060405180910390f35b61018a61032b565b005b33600160006101000a81548173ffffffffffffffffffffffffffffffffffffffff021916908373ffffffffffffffffffffffffffffffffffffffff160217905550565b6001600560008373ffffffffffffffffffffffffffffffffffffffff1673ffffffffffffffffffffffffffffffffffffffff16815260200190815260200160002060006101000a81548160ff02191690831515021790555050565b6000600660008373ffffffffffffffffffffffffffffffffffffffff1673ffffffffffffffffffffffffffffffffffffffff1681526020019081526020016000205490506000600660008473ffffffffffffffffffffffffffffffffffffffff1673ffffffffffffffffffffffffffffffffffffffff168152602001908152602001600020819055503373ffffffffffffffffffffffffffffffffffffffff166108fc829081150290604051600060405180830381858888f1935050505015156102f357600080fd5b5050565b6000600160009054906101000a900473ffffffffffffffffffffffffffffffffffffffff16905090565b6000600354905090565b346003600082825401925050819055505600a165627a7a72305820d0120e1726caad7dbda6e62c0061ae37919e45142ab940dff8d5eaebbcee369d0029",
  "source": "pragma solidity ^0.4.4;\n\ncontract Escrow {\n\n  address facilitator;\n  address doctor;\n\n  uint percentDistributed;\n  uint totalRaised;\n\n  uint[] arrayOfIds;\n\n  mapping(address => bool) confirmationOfTreatment;\n\n  mapping(address => uint) withdrawableFunds;\n\n  function Escrow(uint _totalRaised) {\n    // constructor\n    totalRaised = _totalRaised;\n  }\n\n  function confirmTreatment(address villager) {\n    confirmationOfTreatment[villager] = true;\n  }\n\n  function releaseFunds() internal {\n    totalRaised -= 2; // Should be linked to the contract balance\n    withdrawableFunds[doctor] += 1;\n    withdrawableFunds[facilitator] += 1;\n  }\n\n  function withdrawFunds(address _addr) {\n    // Check funds are there\n    // Check for overflow\n    uint currentFunds = withdrawableFunds[_addr];\n    withdrawableFunds[_addr] = 0;\n    msg.sender.transfer(currentFunds); // transfer amount to doctor\n  }\n\n  function depositFunds() payable {\n    //Make sure there is no overflow, by adding the value and current balance is greater than existing balance;\n    totalRaised += msg.value;\n  }\n\n  function checkTotalFundsRaised() constant returns (uint) {\n    return totalRaised;\n  }\n\n  function registerDoctor() {\n    doctor = msg.sender;\n  }\n\n  function retrieveDoctor() returns (address) {\n    return doctor;\n  }\n}\n",
  "sourcePath": "/Users/christophercoverdale/Desktop/london-hackathon/contracts/Escrow.sol",
  "compiler": {
    "name": "solc",
    "version": "0.4.18+commit.9cf6e910.Emscripten.clang"
  },
  "schemaVersion": "1.0.1",
  "updatedAt": "2018-01-20T09:54:10.656Z"
}