{
  "contractName": "Escrow",
  "abi": [
    {
      "constant": false,
      "inputs": [
        {
          "name": "_name",
          "type": "string"
        },
        {
          "name": "_DOB",
          "type": "string"
        },
        {
          "name": "_gender",
          "type": "string"
        }
      ],
      "name": "registerVillager",
      "outputs": [],
      "payable": false,
      "stateMutability": "nonpayable",
      "type": "function"
    },
    {
      "constant": false,
      "inputs": [
        {
          "name": "_name",
          "type": "string"
        },
        {
          "name": "_id",
          "type": "uint256"
        }
      ],
      "name": "registerDoctor",
      "outputs": [],
      "payable": false,
      "stateMutability": "nonpayable",
      "type": "function"
    },
    {
      "constant": false,
      "inputs": [],
      "name": "withdrawFunds",
      "outputs": [],
      "payable": false,
      "stateMutability": "nonpayable",
      "type": "function"
    },
    {
      "constant": false,
      "inputs": [],
      "name": "confirmTreatment",
      "outputs": [
        {
          "name": "",
          "type": "uint256"
        }
      ],
      "payable": false,
      "stateMutability": "nonpayable",
      "type": "function"
    },
    {
      "constant": false,
      "inputs": [],
      "name": "retrieveDoctorsAvailableFunds",
      "outputs": [
        {
          "name": "",
          "type": "uint256"
        }
      ],
      "payable": false,
      "stateMutability": "nonpayable",
      "type": "function"
    },
    {
      "constant": false,
      "inputs": [],
      "name": "checkAvailableReleasedFunds",
      "outputs": [
        {
          "name": "",
          "type": "uint256"
        }
      ],
      "payable": false,
      "stateMutability": "nonpayable",
      "type": "function"
    },
    {
      "constant": false,
      "inputs": [],
      "name": "getVillagerIdentity",
      "outputs": [
        {
          "name": "",
          "type": "string"
        },
        {
          "name": "",
          "type": "address"
        },
        {
          "name": "",
          "type": "string"
        },
        {
          "name": "",
          "type": "string"
        },
        {
          "name": "",
          "type": "uint256"
        }
      ],
      "payable": false,
      "stateMutability": "nonpayable",
      "type": "function"
    },
    {
      "constant": false,
      "inputs": [],
      "name": "retrieveDoctor",
      "outputs": [
        {
          "name": "",
          "type": "address"
        }
      ],
      "payable": false,
      "stateMutability": "nonpayable",
      "type": "function"
    },
    {
      "constant": true,
      "inputs": [],
      "name": "checkTotalFundsRaised",
      "outputs": [
        {
          "name": "",
          "type": "uint256"
        }
      ],
      "payable": false,
      "stateMutability": "view",
      "type": "function"
    },
    {
      "constant": false,
      "inputs": [],
      "name": "getIdentityOfDoctor",
      "outputs": [
        {
          "name": "",
          "type": "string"
        },
        {
          "name": "",
          "type": "uint256"
        },
        {
          "name": "",
          "type": "address"
        }
      ],
      "payable": false,
      "stateMutability": "nonpayable",
      "type": "function"
    },
    {
      "constant": false,
      "inputs": [],
      "name": "getConfirmationOfTreatment",
      "outputs": [
        {
          "name": "",
          "type": "bool"
        }
      ],
      "payable": false,
      "stateMutability": "nonpayable",
      "type": "function"
    },
    {
      "inputs": [
        {
          "name": "_totalRaised",
          "type": "uint256"
        }
      ],
      "payable": false,
      "stateMutability": "nonpayable",
      "type": "constructor"
    },
    {
      "payable": true,
      "stateMutability": "payable",
      "type": "fallback"
    },
    {
      "anonymous": false,
      "inputs": [],
      "name": "FundsContributed",
      "type": "event"
    },
    {
      "anonymous": false,
      "inputs": [],
      "name": "FundsReleased",
      "type": "event"
    }
  ],
  "bytecode": "0x6060604052341561000f57600080fd5b6040516020806114278339810160405280805190602001909190505080600481905550506113e5806100426000396000f3006060604052600436106100af576000357c0100000000000000000000000000000000000000000000000000000000900463ffffffff1680630a03bbfc146100ed578063136bd148146101d057806324600fc3146102365780635b57b0c41461024b5780635fa6e955146102745780638c868f0f1461029d578063a4ee618a146102c6578063b507eef214610466578063ba4b00b5146104bb578063cde3a96d146104e4578063e449745c146105ac575b346004600082825401925050819055507fc68772d7cabe652feabd2e49898c14655cc43728e030d64641282ab2af6313d660405160405180910390a1005b34156100f857600080fd5b6101ce600480803590602001908201803590602001908080601f0160208091040260200160405190810160405280939291908181526020018383808284378201915050505050509190803590602001908201803590602001908080601f0160208091040260200160405190810160405280939291908181526020018383808284378201915050505050509190803590602001908201803590602001908080601f016020809104026020016040519081016040528093929190818152602001838380828437820191505050505050919050506105d9565b005b34156101db57600080fd5b610234600480803590602001908201803590602001908080601f016020809104026020016040519081016040528093929190818152602001838380828437820191505050505050919080359060200190919050506107a5565b005b341561024157600080fd5b610249610908565b005b341561025657600080fd5b61025e6109d4565b6040518082815260200191505060405180910390f35b341561027f57600080fd5b610287610ac5565b6040518082815260200191505060405180910390f35b34156102a857600080fd5b6102b0610b2d565b6040518082815260200191505060405180910390f35b34156102d157600080fd5b6102d9610b95565b60405180806020018673ffffffffffffffffffffffffffffffffffffffff1673ffffffffffffffffffffffffffffffffffffffff1681526020018060200180602001858152602001848103845289818151815260200191508051906020019080838360005b8381101561035957808201518184015260208101905061033e565b50505050905090810190601f1680156103865780820380516001836020036101000a031916815260200191505b50848103835287818151815260200191508051906020019080838360005b838110156103bf5780820151818401526020810190506103a4565b50505050905090810190601f1680156103ec5780820380516001836020036101000a031916815260200191505b50848103825286818151815260200191508051906020019080838360005b8381101561042557808201518184015260208101905061040a565b50505050905090810190601f1680156104525780820380516001836020036101000a031916815260200191505b509850505050505050505060405180910390f35b341561047157600080fd5b610479610fac565b604051808273ffffffffffffffffffffffffffffffffffffffff1673ffffffffffffffffffffffffffffffffffffffff16815260200191505060405180910390f35b34156104c657600080fd5b6104ce610fd5565b6040518082815260200191505060405180910390f35b34156104ef57600080fd5b6104f7610fdf565b60405180806020018481526020018373ffffffffffffffffffffffffffffffffffffffff1673ffffffffffffffffffffffffffffffffffffffff168152602001828103825285818151815260200191508051906020019080838360005b8381101561056f578082015181840152602081019050610554565b50505050905090810190601f16801561059c5780820380516001836020036101000a031916815260200191505b5094505050505060405180910390f35b34156105b757600080fd5b6105bf6111dc565b604051808215151515815260200191505060405180910390f35b33600360006101000a81548173ffffffffffffffffffffffffffffffffffffffff021916908373ffffffffffffffffffffffffffffffffffffffff16021790555082600260003373ffffffffffffffffffffffffffffffffffffffff1673ffffffffffffffffffffffffffffffffffffffff1681526020019081526020016000206000019080519060200190610670929190611300565b5081600260003373ffffffffffffffffffffffffffffffffffffffff1673ffffffffffffffffffffffffffffffffffffffff16815260200190815260200160002060010190805190602001906106c7929190611300565b5080600260003373ffffffffffffffffffffffffffffffffffffffff1673ffffffffffffffffffffffffffffffffffffffff168152602001908152602001600020600201908051906020019061071e929190611300565b5033600260003373ffffffffffffffffffffffffffffffffffffffff1673ffffffffffffffffffffffffffffffffffffffff16815260200190815260200160002060030160006101000a81548173ffffffffffffffffffffffffffffffffffffffff021916908373ffffffffffffffffffffffffffffffffffffffff160217905550505050565b336000806101000a81548173ffffffffffffffffffffffffffffffffffffffff021916908373ffffffffffffffffffffffffffffffffffffffff16021790555081600160003373ffffffffffffffffffffffffffffffffffffffff1673ffffffffffffffffffffffffffffffffffffffff168152602001908152602001600020600001908051906020019061083b929190611300565b5080600160003373ffffffffffffffffffffffffffffffffffffffff1673ffffffffffffffffffffffffffffffffffffffff1681526020019081526020016000206001018190555033600160003373ffffffffffffffffffffffffffffffffffffffff1673ffffffffffffffffffffffffffffffffffffffff16815260200190815260200160002060020160006101000a81548173ffffffffffffffffffffffffffffffffffffffff021916908373ffffffffffffffffffffffffffffffffffffffff1602179055505050565b6000600960003373ffffffffffffffffffffffffffffffffffffffff1673ffffffffffffffffffffffffffffffffffffffff1681526020019081526020016000205490506000600960003373ffffffffffffffffffffffffffffffffffffffff1673ffffffffffffffffffffffffffffffffffffffff168152602001908152602001600020819055503373ffffffffffffffffffffffffffffffffffffffff166108fc829081150290604051600060405180830381858888f1935050505015156109d157600080fd5b50565b60006001600860003373ffffffffffffffffffffffffffffffffffffffff1673ffffffffffffffffffffffffffffffffffffffff16815260200190815260200160002060006101000a81548160ff021916908315150217905550610a36611252565b42600260003373ffffffffffffffffffffffffffffffffffffffff1673ffffffffffffffffffffffffffffffffffffffff16815260200190815260200160002060040181905550600260003373ffffffffffffffffffffffffffffffffffffffff1673ffffffffffffffffffffffffffffffffffffffff16815260200190815260200160002060040154905090565b6000600960008060009054906101000a900473ffffffffffffffffffffffffffffffffffffffff1673ffffffffffffffffffffffffffffffffffffffff1673ffffffffffffffffffffffffffffffffffffffff16815260200190815260200160002054905090565b6000600960008060009054906101000a900473ffffffffffffffffffffffffffffffffffffffff1673ffffffffffffffffffffffffffffffffffffffff1673ffffffffffffffffffffffffffffffffffffffff16815260200190815260200160002054905090565b610b9d611380565b6000610ba7611380565b610baf611380565b600060026000600360009054906101000a900473ffffffffffffffffffffffffffffffffffffffff1673ffffffffffffffffffffffffffffffffffffffff1673ffffffffffffffffffffffffffffffffffffffff16815260200190815260200160002060000160026000600360009054906101000a900473ffffffffffffffffffffffffffffffffffffffff1673ffffffffffffffffffffffffffffffffffffffff1673ffffffffffffffffffffffffffffffffffffffff16815260200190815260200160002060030160009054906101000a900473ffffffffffffffffffffffffffffffffffffffff1660026000600360009054906101000a900473ffffffffffffffffffffffffffffffffffffffff1673ffffffffffffffffffffffffffffffffffffffff1673ffffffffffffffffffffffffffffffffffffffff16815260200190815260200160002060020160026000600360009054906101000a900473ffffffffffffffffffffffffffffffffffffffff1673ffffffffffffffffffffffffffffffffffffffff1673ffffffffffffffffffffffffffffffffffffffff16815260200190815260200160002060010160026000600360009054906101000a900473ffffffffffffffffffffffffffffffffffffffff1673ffffffffffffffffffffffffffffffffffffffff1673ffffffffffffffffffffffffffffffffffffffff16815260200190815260200160002060040154848054600181600116156101000203166002900480601f016020809104026020016040519081016040528092919081815260200182805460018160011615610100020316600290048015610e5c5780601f10610e3157610100808354040283529160200191610e5c565b820191906000526020600020905b815481529060010190602001808311610e3f57829003601f168201915b50505050509450828054600181600116156101000203166002900480601f016020809104026020016040519081016040528092919081815260200182805460018160011615610100020316600290048015610ef85780601f10610ecd57610100808354040283529160200191610ef8565b820191906000526020600020905b815481529060010190602001808311610edb57829003601f168201915b50505050509250818054600181600116156101000203166002900480601f016020809104026020016040519081016040528092919081815260200182805460018160011615610100020316600290048015610f945780601f10610f6957610100808354040283529160200191610f94565b820191906000526020600020905b815481529060010190602001808311610f7757829003601f168201915b50505050509150945094509450945094509091929394565b60008060009054906101000a900473ffffffffffffffffffffffffffffffffffffffff16905090565b6000600454905090565b610fe7611380565b600080600160008060009054906101000a900473ffffffffffffffffffffffffffffffffffffffff1673ffffffffffffffffffffffffffffffffffffffff1673ffffffffffffffffffffffffffffffffffffffff168152602001908152602001600020600001600160008060009054906101000a900473ffffffffffffffffffffffffffffffffffffffff1673ffffffffffffffffffffffffffffffffffffffff1673ffffffffffffffffffffffffffffffffffffffff16815260200190815260200160002060010154600160008060009054906101000a900473ffffffffffffffffffffffffffffffffffffffff1673ffffffffffffffffffffffffffffffffffffffff1673ffffffffffffffffffffffffffffffffffffffff16815260200190815260200160002060020160009054906101000a900473ffffffffffffffffffffffffffffffffffffffff16828054600181600116156101000203166002900480601f0160208091040260200160405190810160405280929190818152602001828054600181600116156101000203166002900480156111ca5780601f1061119f576101008083540402835291602001916111ca565b820191906000526020600020905b8154815290600101906020018083116111ad57829003601f168201915b50505050509250925092509250909192565b600060086000600360009054906101000a900473ffffffffffffffffffffffffffffffffffffffff1673ffffffffffffffffffffffffffffffffffffffff1673ffffffffffffffffffffffffffffffffffffffff16815260200190815260200160002060009054906101000a900460ff16905090565b60016004600082825403925050819055506001600960008060009054906101000a900473ffffffffffffffffffffffffffffffffffffffff1673ffffffffffffffffffffffffffffffffffffffff1673ffffffffffffffffffffffffffffffffffffffff168152602001908152602001600020600082825401925050819055507f05678c3677a632ee64cd41a3ba721b9fec479ed0a181c291a05952098793bffc60405160405180910390a1565b828054600181600116156101000203166002900490600052602060002090601f016020900481019282601f1061134157805160ff191683800117855561136f565b8280016001018555821561136f579182015b8281111561136e578251825591602001919060010190611353565b5b50905061137c9190611394565b5090565b602060405190810160405280600081525090565b6113b691905b808211156113b257600081600090555060010161139a565b5090565b905600a165627a7a72305820586b028b52115b5df7918c861592e3b4d4bd59c45633da4cf665fff94820c5800029",
  "source": "pragma solidity ^0.4.4;\n\ncontract Escrow {\n\n  /**\n   * Doctor\n   */\n  address doctor;\n\n  struct Doctor {\n    string name;\n    uint id;\n    address idBox;\n  }\n\n  mapping(address => Doctor) identityOfDoctor;\n\n\n  /**\n   * Villager\n   */\n   struct Villager {\n     string name;\n     string DOB;\n     string gender;\n     address id;\n     uint256 timeStampOfTreatment;\n   }\n   mapping(address => Villager) identityOfVillager;\n   address villager;\n\n\n  uint totalRaised;\n\n  /**\n   * I'm not sure I need these\n   */\n  uint[] arrayOfIds;\n  uint percentDistributed;\n  address facilitator;\n\n\n\n  mapping(address => bool) confirmationOfTreatment;\n  mapping(address => uint) withdrawableFunds;\n\n  //Event when funds paid\n  event FundsContributed();\n  event FundsReleased();\n  // event VillagerConfirmationTimeStamp();\n\n  function Escrow(uint _totalRaised) {\n    // constructor\n    totalRaised = _totalRaised;\n  }\n\n  function confirmTreatment() returns (uint256) {\n    confirmationOfTreatment[msg.sender] = true;\n\n    // Release funds to the middleman/doctor\n    releaseFunds();\n\n    // Record timestamp for villager\n    identityOfVillager[msg.sender].timeStampOfTreatment = block.timestamp;\n    \n    return identityOfVillager[msg.sender].timeStampOfTreatment;\n  }\n\n  function releaseFunds() internal {\n    totalRaised -= 1; // Should be linked to the contract balance\n    withdrawableFunds[doctor] += 1; \n\n    //Emit that the funds have been released to the doctor;\n    FundsReleased();\n  }\n\n  function retrieveDoctorsAvailableFunds() returns (uint) {\n    return withdrawableFunds[doctor];\n  }\n\n  function checkAvailableReleasedFunds() returns (uint) {\n    return withdrawableFunds[doctor];\n  }\n\n  function withdrawFunds() {\n    // Check funds are there\n    // Check for overflow\n    uint currentFunds = withdrawableFunds[msg.sender];\n    withdrawableFunds[msg.sender] = 0;\n    msg.sender.transfer(currentFunds); // transfer amount to doctor\n  }\n\n\n  // Fallback function to users to pay to\n  function() payable {\n    totalRaised += msg.value;\n\n    FundsContributed();\n  }\n\n  function checkTotalFundsRaised() constant returns (uint) {\n    return totalRaised;\n  }\n\n  function registerDoctor(string _name, uint _id) {\n    doctor = msg.sender;\n    identityOfDoctor[msg.sender].name = _name;\n    identityOfDoctor[msg.sender].id = _id;\n    identityOfDoctor[msg.sender].idBox = msg.sender;\n  }\n\n  function registerVillager(string _name, string _DOB, string _gender) {\n    villager = msg.sender;\n    identityOfVillager[msg.sender].name = _name;\n    identityOfVillager[msg.sender].DOB = _DOB;\n    identityOfVillager[msg.sender].gender = _gender;\n    identityOfVillager[msg.sender].id = msg.sender;\n  }\n\n  function retrieveDoctor() returns (address) {\n    return doctor;\n  }\n\n  //Retrieve data from the struct\n  function getIdentityOfDoctor() returns (string, uint, address) {\n    return (identityOfDoctor[doctor].name, identityOfDoctor[doctor].id, identityOfDoctor[doctor].idBox);\n  }\n\n  function getVillagerIdentity() returns (string, address, string, string, uint256) {\n    return (identityOfVillager[villager].name, identityOfVillager[villager].id, identityOfVillager[villager].gender, identityOfVillager[villager].DOB, identityOfVillager[villager].timeStampOfTreatment);\n  }\n\n  //Retrieve data from temporary values, intention to expand this to dynamically sizing arrays\n  function getConfirmationOfTreatment() returns (bool) {\n    return confirmationOfTreatment[villager];\n  }\n\n}\n",
  "sourcePath": "/Users/christophercoverdale/Desktop/london-hackathon/contracts/Escrow.sol",
  "compiler": {
    "name": "solc",
    "version": "0.4.18+commit.9cf6e910.Emscripten.clang"
  },
  "schemaVersion": "1.0.1",
  "updatedAt": "2018-01-20T19:17:33.214Z"
}