{
  "contractName": "Identity",
  "abi": [
    {
      "constant": false,
      "inputs": [
        {
          "name": "id",
          "type": "uint256"
        }
      ],
      "name": "getAddress",
      "outputs": [
        {
          "name": "",
          "type": "address"
        }
      ],
      "payable": false,
      "stateMutability": "nonpayable",
      "type": "function"
    },
    {
      "constant": false,
      "inputs": [
        {
          "name": "_id",
          "type": "uint256"
        },
        {
          "name": "_name",
          "type": "string"
        },
        {
          "name": "_DOB",
          "type": "uint256"
        },
        {
          "name": "publicAddress",
          "type": "address"
        }
      ],
      "name": "createIdentity",
      "outputs": [],
      "payable": false,
      "stateMutability": "nonpayable",
      "type": "function"
    },
    {
      "inputs": [],
      "payable": false,
      "stateMutability": "nonpayable",
      "type": "constructor"
    }
  ],
  "bytecode": "0x6060604052341561000f57600080fd5b6103da8061001e6000396000f30060606040526004361061004c576000357c0100000000000000000000000000000000000000000000000000000000900463ffffffff168063b93f9b0a14610051578063d29e2bd1146100b4575b600080fd5b341561005c57600080fd5b6100726004808035906020019091905050610142565b604051808273ffffffffffffffffffffffffffffffffffffffff1673ffffffffffffffffffffffffffffffffffffffff16815260200191505060405180910390f35b34156100bf57600080fd5b610140600480803590602001909190803590602001908201803590602001908080601f0160208091040260200160405190810160405280939291908181526020018383808284378201915050505050509190803590602001909190803573ffffffffffffffffffffffffffffffffffffffff1690602001909190505061017e565b005b600080600083815260200190815260200160002060009054906101000a900473ffffffffffffffffffffffffffffffffffffffff169050919050565b6000848160000181905550838160010190805190602001906101a1929190610282565b508281600201819055508160008087815260200190815260200160002060006101000a81548173ffffffffffffffffffffffffffffffffffffffff021916908373ffffffffffffffffffffffffffffffffffffffff16021790555080600160008473ffffffffffffffffffffffffffffffffffffffff1673ffffffffffffffffffffffffffffffffffffffff168152602001908152602001600020600082015481600001556001820181600101908054600181600116156101000203166002900461026d929190610302565b50600282015481600201559050505050505050565b828054600181600116156101000203166002900490600052602060002090601f016020900481019282601f106102c357805160ff19168380011785556102f1565b828001600101855582156102f1579182015b828111156102f05782518255916020019190600101906102d5565b5b5090506102fe9190610389565b5090565b828054600181600116156101000203166002900490600052602060002090601f016020900481019282601f1061033b5780548555610378565b8280016001018555821561037857600052602060002091601f016020900482015b8281111561037757825482559160010191906001019061035c565b5b5090506103859190610389565b5090565b6103ab91905b808211156103a757600081600090555060010161038f565b5090565b905600a165627a7a72305820183370ce2f247e87af4ff517091006cf34b02c0147979e1778e3454be839191a0029",
  "source": "pragma solidity ^0.4.4;\n\ncontract Identity {\n\n  mapping(uint => address) idToAddress;\n  mapping(address => PersonalIdentity) addressToPersonalIdentity;\n\n  struct PersonalIdentity {\n    uint id;\n    string fullName;\n    uint DOB;\n  }\n\n  function Identity() {\n    // constructor\n  }\n\n  function createIdentity(uint _id, string _name, uint _DOB, address publicAddress) {\n    PersonalIdentity identity;\n    identity.id = _id;\n    identity.fullName = _name;\n    identity.DOB = _DOB;\n\n    idToAddress[_id] = publicAddress;\n    addressToPersonalIdentity[publicAddress] = identity;\n  }\n\n  function getAddress(uint id) returns (address) {\n    return idToAddress[id];\n  }\n  // function getIdentity(address publicAddress) returns (string) {\n  //   return idToAddress[publicAddress].fullName;\n  // }\n}\n",
  "sourcePath": "/Users/christophercoverdale/Desktop/london-hackathon/contracts/Identity.sol",
  "compiler": {
    "name": "solc",
    "version": "0.4.18+commit.9cf6e910.Emscripten.clang"
  },
  "schemaVersion": "1.0.1",
  "updatedAt": "2018-01-20T09:54:10.648Z"
}